:020000040800F2
:1000000000000120191F0008B51E0008B71E0008D7
:10001000B91E0008BB1E0008BD1E0008000000003D
:10002000000000000000000000000000BF1E0008EB
:10003000C11E000800000000C31E0008C51E000805
:10004000691F0008691F0008691F0008691F000870
:10005000691F0008691F0008691F0008691F000860
:10006000691F0008691F0008691F0008691F000850
:10007000691F0008691F0008691F0008691F000840
:10008000691F0008691F0008691F0008691F000830
:10009000691F0008691F0008691F0008691F000820
:1000A000691F0008691F0008691F0008691F000810
:1000B000691F00080000000000000000691F000820
:1000C000691F00080000000000000000691F000810
:1000D00000000000691F0008691F00080000000000
:1000E000691F0008691F00080000000000000000F0
:1000F0000000000000000000000000000000000000
:10010000000000000000000000000000691F00085F
:100110000000000000000000691F0008691F0008BF
:10012000691F0008691F0008691F0008691F00088F
:10013000691F00080000000000000000000000002F
:10014000691F0008691F0008691F0008691F00086F
:10015000691F0008691F0008691F0008691F00085F
:10016000691F0008691F0008691F000800000000DF
:10017000691F0008691F000800000000000000005F
:10018000691F0008691F0008691F000800000000BF
:1001900010B5054C237833B9044B13B10448AFF3C1
:1001A00000800123237010BD6800002000000000C3
:1001B0006C20000808B5034B1BB103490348AFF39B
:1001C000008008BD000000006C0000206C200008CA
:1001D00010B50446074B1868074BA3FB0030800995
:1001E00000F06CF8002221464FF0FF3000F032F8AA
:1001F000002010BD00000020D34D621008B5032080
:1002000000F016F80020FFF7E3FF01F0B1FD002039
:1002100008BD0000024A136801331360704700BF35
:100220003C010020014B1868704700BF3C010020D2
:10023000074AD36823F4E0631B041B0C000200F49C
:10024000E060184340F0BF6040F40030D060704779
:1002500000ED00E030B4174BDB68C3F30223C3F1B9
:100260000704042C28BF04241D1D062D18D9033BA8
:100270004FF0FF3505FA04F421EA0401994005FA2C
:1002800003F322EA0303194300280BDB0901C9B277
:1002900000F1604000F5614080F8001330BC704709
:1002A0000023E5E700F00F000901C9B2024B195421
:1002B000F4E700BF00ED00E014ED00E00138B0F11C
:1002C000807F0AD2064B5860064AF02182F823103C
:1002D0000020986007221A6070470120704700BF15
:1002E00010E000E000ED00E0042805D0054A1368A6
:1002F00023F0040313607047024A136843F00403B9
:100300001360704710E000E0704708B5FFF7FCFF8E
:1003100008BD0000F0B482B000236FE0866805EAF3
:10032000060CCE68BE4046EA0C068660466826EAA1
:1003300004044E68C6F300169E4026434660C46817
:1003400025408C68BC402C43C4604C6814F0805F2E
:1003500053D04C4C256E45F001052566246E04F003
:1003600001040194019C9D08AE1C474C54F8267072
:1003700003F00304A6000F24B44027EA0407B0F1F9
:10038000904F77D0414CA04276D004F58064A042D3
:100390006ED00724B4403C4302353B4E46F825401E
:1003A0003B4C2568D44304EA05064F6817F4803FA8
:1003B00001D042EA0506364D2E606D6804EA050656
:1003C0004F6817F4003F01D042EA0506304D6E60D9
:1003D000AD6804EA05064F6817F4801F01D042EAB1
:1003E00005062B4DAE60ED682C404E6816F4001FDC
:1003F00001D042EA0504264AD46001330A6832FA81
:1004000003F43BD001249C402240F6D04D68022DDD
:1004100001D0122D10D1DE08083650F826C003F0A6
:100420000705AF000F25BD402CEA050C0D69BD4046
:1004300045EA0C0540F8265006685F000325BD40DC
:10044000ED4305EA060C4E6806F00306BE4046EA98
:100450000C0606604E6806F1FF3CBCF1010F7FF60A
:100460005DAF112E3FF45AAF122E7FF468AF55E7FF
:1004700002248FE700248DE701248BE702B0F0BC53
:10048000704700BF00100240000001400004004817
:100490000004014003689A6912F0020F01D00022A3
:1004A0009A6203689A6912F0010F03D19A6942F0C7
:1004B00001029A61704770B4039E05686868740D04
:1004C00004F4806444F07F7444F4583444F47F743A
:1004D00044F0030420EA0400C1F3090141EA0241A7
:1004E000194331430143696070BC704770B50446DD
:1004F0000D46164603689B6913F0100F1CD0236845
:100500009A6912F0200F19D1B5F1FF3FF7D0FFF72C
:1005100089FE801BA84201D8002DF0D1636C43F006
:1005200020036364202384F84130002384F84230A0
:1005300084F84030012020E000201EE01022DA6123
:1005400023682025DD612046FFF7A4FF2268536859
:1005500023F0FF7323F48B3323F4FF7323F00103A1
:100560005360636C43F00403636484F841500023D8
:1005700084F8423084F84030012070BD70B50446E4
:100580000D46164623689B6913F0020F1DD13246B3
:1005900029462046FFF7AAFFC8B9B5F1FF3FF1D0C1
:1005A000FFF740FE801BA84201D8002DEAD1636C02
:1005B00043F020036364202384F84130002384F84F
:1005C000423084F84030012000E0002070BD01205E
:1005D000FCE7F8B505460F4616461C462B689B6996
:1005E00037EA03030CBF01230023B34218D1B4F14F
:1005F000FF3FF3D0FFF716FE069BC01AA04201D8BA
:10060000002CEBD16B6C43F020036B64202385F846
:100610004130002385F8423085F84030012000E069
:100620000020F8BD70B505460C4616462B689B6940
:1006300013F0200F1AD1324621462846FFF756FF05
:10064000B0B9FFF7EFFD801BA04201D8002CEDD11F
:100650006B6C43F020036B64202385F8413000234A
:1006600085F8423085F84030012070BD0020FCE75D
:100670000120FAE770B504460D46164623689B69CB
:1006800013F0040F3ED1324629462046FFF72EFFD5
:100690000146002838D123689A6912F0200F13D13F
:1006A000FFF7C0FD801BA84201D8002DE6D1636C86
:1006B00043F020036364202384F84130002384F84E
:1006C00040300121084670BD9A6912F0040F02D033
:1006D000228D002AF6D12022DA6121684B6823F0AE
:1006E000FF7323F48B3323F4FF7323F001034B6078
:1006F0000023636484F8412084F8423084F8403059
:100700000121DFE70021DDE70121DBE710B5044629
:10071000002847D090F84130002B48D0242384F89B
:1007200041302268136823F0010313606368226874
:1007300023F0706313612268936823F4004393608D
:10074000E368012B38D0A368226843F40443936024
:10075000E368022B36D02268536843F0007343F4F9
:10076000004353602268D36823F40043D3602369B5
:1007700062691343A169226843EA0123D360E369F4
:10078000216A22680B4313602268136843F0010357
:10079000136000206064202384F84130206384F8D3
:1007A000420010BD4FF4007343640120F9E780F864
:1007B000403001F02DFBB1E7A368226843F4004309
:1007C0009360C5E723684FF400625A60C3E70000F6
:1007D0002DE9F04383B090F84150EDB2202D40F068
:1007E000A38090F84040012C00F0A3809846174663
:1007F0000E4604464FF0010980F84090FFF712FDC5
:100800000546009019234A464FF400412046FFF761
:10081000E0FE002840F08F80212384F8413010232F
:1008200084F84230002363646762A4F82A8063631B
:10083000638D9BB2FF2B0AD9FF222285424B009386
:100840004FF0807331462046FFF735FE18E0628D89
:1008500092B222853C4B00934FF00073D2B23146E6
:100860002046FFF728FE0BE0628D92B2228500231E
:1008700000934FF00073D2B231462046FFF71BFEC3
:10088000638D9BB2002B32D02A460A992046FFF78F
:1008900075FE002851D1636A5A1C626222681B7877
:1008A0009362638D013B9BB26385238D013B9BB2B9
:1008B0002385628D92B2002AE2D0002BE0D1009510
:1008C0000A9B002280212046FFF783FE002836D1B4
:1008D000638D9BB2FF2BC7D9FF2222850023009393
:1008E0004FF0807331462046FFF7E5FDC8E72A4602
:1008F0000A992046FFF796FE034610BB2268202186
:10090000D1612068426822F0FF7222F48B3222F417
:10091000FF7222F00102426084F84110002284F844
:10092000422084F8402000E00223184603B0BDE8CE
:10093000F0830223F9E70123F7E70123F5E7012319
:10094000F3E70123F1E700BF002000802DE9F04329
:1009500083B090F84150EDB2202D40F0A38090F884
:100960004040012C00F0A380984617460E460446EE
:100970004FF0010980F84090FFF754FC05460090C5
:1009800019234A464FF400412046FFF722FE002873
:1009900040F08F80222384F84130102384F84230C5
:1009A000002363646762A4F82A806363638D9BB24B
:1009B000FF2B0AD9FF222285424B00934FF0807310
:1009C00031462046FFF777FD18E0628D92B222850E
:1009D0003C4B00934FF00073D2B231462046FFF7F4
:1009E0006AFD0BE0628D92B22285002300934FF0E6
:1009F0000073D2B231462046FFF75DFD638D9BB296
:100A0000002B32D02A460A992046FFF733FE0028F1
:100A100051D123685A6A636A591C61621A70238D26
:100A2000013B9BB22385628D013A92B26285628D51
:100A300092B2002AE2D0002BE0D100950A9B00225E
:100A400080212046FFF7C5FD002836D1638D9BB27B
:100A5000FF2BC7D9FF222285002300934FF080731C
:100A600031462046FFF727FDC8E72A460A99204667
:100A7000FFF7D8FD034610BB22682021D161206812
:100A8000426822F0FF7222F48B3222F4FF7222F0CD
:100A90000102426084F84110002284F8422084F868
:100AA000402000E00223184603B0BDE8F083022393
:100AB000F9E70123F7E70123F5E70123F3E7012332
:100AC000F1E700BF0024008090F84130DBB2202B1A
:100AD00024D190F84030012B22D0012380F84030FF
:100AE000242380F841300268136823F00103136067
:100AF0000268136823F48053136002681368194373
:100B000011600268136843F001031360202380F82A
:100B10004130002380F8403018467047022070476B
:100B20000220704790F84130DBB2202B22D190F8A0
:100B30004030012B20D0012380F84030242380F85E
:100B400041300268136823F00103136002681368E0
:100B500023F4706343EA012111600268136843F0D3
:100B600001031360202380F84130002380F84030D7
:100B70001846704702207047022070471E4A53688B
:100B800023F00E0301680B4353601C4B5A6822F498
:100B900080325A601A6822F480321A60DA6822F4CD
:100BA0008032DA609A6822F480329A60436813F4E3
:100BB000803F04D0114A136843F4803313604368C4
:100BC00013F4003F04D00D4A536843F4803353605C
:100BD000436813F0010F04D0084A936843F480334C
:100BE0009360436813F0020F04D0044AD36843F4BF
:100BF0008033D36000207047007000400004014043
:100C0000024A536843F0010353607047007000408C
:100C1000024B186800F4C060704700BF00700040CD
:100C2000B0F5007F0FD0204B1B6803F4C063B3F511
:100C3000806F37D01C4A136823F4C06343F4806389
:100C4000136000207047184B1B6803F4C063B3F5B2
:100C5000007F25D0144A136823F4C06343F4007363
:100C60001360124B1B6802F1467202F55B3202F20E
:100C70008322A2FB03239A0C322303FB02F300E03E
:100C8000013B23B1084A526912F4806FF8D1064B38
:100C90005B6913F4806F01D1002070470320704717
:100CA00000207047002070470070004000000020C6
:100CB00030B583B00546204B9B6D13F0805F0BD0A1
:100CC000FFF7A6FFB0F5007F17D0802D1FD82DD0DD
:100CD000702D2DD000211BE0174CA36D43F08053E5
:100CE000A365A36D03F080530193019BFFF790FF71
:100CF000A36D23F08053A365E4E7802D03D9A02DD5
:100D000003D9022104E0002102E0012100E00321D7
:100D10000A4A136823F007030B431360136803F0B8
:100D200007038B4206D0012003B030BD0221EFE75C
:100D30000121EDE70020F7E700100240002002400B
:100D40003B4B9B6813F00C0F1AD0394B9B6803F098
:100D50000C030C2B0ED0364B9B6803F00C03042BBA
:100D60002FD0334B9B6803F00C03082B2CD00020B2
:100D7000014618E02E4BDB6803F00303012BEAD198
:100D80002B4B1B6813F0080F14D1294BD3F8943068
:100D9000C3F30323274A52F82310254B9B6813F013
:100DA0000C0F0CD00020224A936803F00C030C2B8C
:100DB0000DD070471E4B1B68C3F30313EAE70846C8
:100DC000F1E71D480021EEE71C480021EBE7134640
:100DD000D26802F00302DB68C3F302130133022A74
:100DE0000AD0032A1AD0B1FBF3F3114AD068C0F33A
:100DF000062000FB03F008E00F48B0FBF3F30C4AB9
:100E0000D068C0F3062000FB03F0094BDB68C3F396
:100E1000416301335B00B0FBF3F0CAE70748B0FB66
:100E2000F3F3034AD068C0F3062000FB03F0ECE7BD
:100E300000100240982000080024F40000127A00FC
:100E4000002800F0D78270B582B00446036813F022
:100E5000100F3FD0974B9B6813F00C0F40F092801F
:100E6000944B1B6813F0020F03D08369002B00F032
:100E7000C382206A8F4B1B6813F0080F62D08D4B22
:100E80001B6803F0F003984263D9FFF711FF0028B5
:100E900040F0B482874B1A6842F008021A601A6860
:100EA00022F0F002216A0A431A605A6822F47F4253
:100EB000E16942EA01225A60FFF742FF7D4B9B68DD
:100EC000C3F303137C4AD35CD8407C4B18600020EA
:100ED000FFF77EF9236813F0010F00F0A180754B36
:100EE0009B6803F00C03082B00F09180714B9B680A
:100EF00003F00C030C2B00F083806368B3F5803F94
:100F000000F0B580B3F5A02F00F0B780694B1A68E8
:100F100022F480321A601A6822F480221A60636810
:100F2000002B00F0B780FFF77DF90546614B1B6889
:100F300013F4003F74D1FFF775F9401B6428F5D90D
:100F4000032062E25B4BD3F894301B0903F0F003FB
:100F500099E7584B1A6842F008021A601A6822F0A2
:100F6000F002216A0A431A605A6822F47F42E1695A
:100F700042EA01225A60206AFFF79AFE00289BD0BD
:100F8000012042E2836933B34A4A136843F0010304
:100F90001360FFF747F90546464B1B6813F0020F35
:100FA00006D1FFF73FF9401B0228F5D903202CE2B8
:100FB000404B1A6842F008021A601A6822F0F002E8
:100FC000216A0A431A605A6822F47F42E16942EAC0
:100FD00001225A607EE7374A136823F00103136049
:100FE000FFF720F90546334B1B6813F0020F3FF45F
:100FF00071AFFFF717F9401B0228F4D9032004E270
:101000002C4BDB6803F00303032B7FF476AF294BF3
:101010001B6813F4003F03D06368002B00F0F081DD
:10102000236813F0020F62D0224B9B6803F00C037D
:10103000042B4BD01F4B9B6803F00C030C2B3FD0B1
:10104000E368002B79D01B4A136843F48073136064
:10105000FFF7E8F80546174B1B6813F4806F63D160
:10106000FFF7E0F8401B0228F5D90320CDE1114A33
:10107000136843F48033136051E703F18043A3F511
:101080003C331A6842F480221A601A6842F48032B3
:101090001A6044E7FFF7C6F80546064B1B6813F4D1
:1010A000003FBDD0FFF7BEF8401B6428F5D90320F0
:1010B000ABE100BF00100240C82000080000002083
:1010C000B14BDB6803F00303022BB9D1AE4B1B68B5
:1010D00013F4806F03D0E368002B00F09381AA4AD9
:1010E000536823F0F853216943EA0163536023688E
:1010F00013F0080F4CD063699BB3A34AD2F8943025
:1011000043F00103C2F89430FFF78CF805469E4B7C
:10111000D3F8943013F0020F3AD1FFF783F8401B55
:101120000228F4D9032070E1974A536823F0F8535A
:10113000216943EA01635360D9E7934A136823F4B2
:1011400080731360FFF76EF805468F4B1B6813F42E
:10115000806FCCD0FFF766F8401B0228F5D903203A
:1011600053E1894AD2F8943023F00103C2F8943055
:10117000FFF758F80546844BD3F8943013F0020F6C
:1011800006D0FFF74FF8401B0228F4D903203CE1BA
:10119000236813F0040F7AD07B4B9B6D13F0805FB4
:1011A00036D1794B9A6D42F080529A659B6D03F06F
:1011B00080530193019B0125744B1B6813F4807FBE
:1011C00028D0A368012B39D0052B3FD06E4BD3F824
:1011D000902022F00102C3F89020D3F8902022F052
:1011E0000402C3F89020A368002B3DD0FFF71AF843
:1011F0000646654BD3F8903013F0020F46D1FFF747
:1012000011F8801B41F288339842F2D90320FCE0A8
:101210000025D1E75D4A136843F480731360FFF73C
:1012200001F80646594B1B6813F4807FC9D1FEF7BD
:10123000F9FF801B0228F5D90320E6E0524AD2F8D4
:10124000903043F00103C2F89030CCE74E4BD3F816
:10125000902042F00402C3F89020D3F8902042F08E
:101260000102C3F89020BEE7FEF7DCFF0646464BBE
:10127000D3F8903013F0020F08D0FEF7D3FF801B95
:1012800041F288339842F2D90320BEE0E5B92368E1
:1012900013F0200F35D0636AE3B13B4AD2F898309F
:1012A00043F00103C2F89830FEF7BCFF0546364B09
:1012B000D3F8983013F0020F23D1FEF7B3FF401B91
:1012C0000228F4D90320A0E02F4A936D23F0805325
:1012D0009365DCE72C4AD2F8983023F00103C2F87A
:1012E0009830FEF79FFF0546274BD3F8983013F050
:1012F000020F06D0FEF796FF401B0228F4D9032008
:1013000083E0A36A002B7FD01F4A926802F00C0290
:101310000C2A7CD0022B23D01B4B1A6822F080723F
:101320001A601B6813F0006F04D1174AD36823F0CA
:101330000303D360144AD36823F0887323F4803303
:10134000D360FEF76FFF04460F4B1B6813F0007F5E
:101350004ED0FEF767FF001B0228F5D9032054E0AA
:10136000094A136823F080731360FEF75BFF05469C
:10137000054B1B6813F0007F0AD0FEF753FF401B9C
:101380000228F5D9032040E0001002400070004020
:10139000236B5A1E636B1B0243EA0213E26A134378
:1013A000E26B5208013A43EA4253226C5208013A76
:1013B00043EA4263A26B43EAC263164AD3601368EE
:1013C00043F080731360D36843F08073D360FEF7FB
:1013D00029FF04460F4B1B6813F0007F06D1FEF770
:1013E00021FF001B0228F5D903200EE000200CE0AD
:1013F00000200AE001207047012006E0012004E0FF
:10140000012002E0012000E0002002B070BD0120B8
:10141000FBE700BF00100240002800F0998070B583
:1014200004464D4B1B6803F007038B420CD24A4A1B
:10143000136823F007030B431360136803F00703DB
:101440008B4201D0012070BD0D46236813F0010FBF
:1014500039D06368032B09D0022B26D063BB3F4AE7
:10146000126812F0020F06D10120ECE73B4A126825
:1014700012F0007F6ED039498A6822F003021343CC
:101480008B60FEF7CFFE0646344B9B6803F00C03DF
:101490006268B3EB820F16D0FEF7C4FE801B41F2E8
:1014A00088339842F0D90320CDE72C4A126812F411
:1014B000003FE0D10120C6E7284A126812F4806F8D
:1014C000D9D10120BFE7236813F0020F06D0234AC9
:1014D000936823F0F003A1680B4393601E4B1B68D5
:1014E00003F00703AB420CD91B4A136823F0070330
:1014F0002B431360136803F00703AB4201D00120B4
:10150000A1E7236813F0040F06D0144A936823F46C
:10151000E063E1680B439360236813F0080F07D082
:101520000E4A936823F46053216943EAC103936030
:10153000FFF706FC094B9B68C3F30313084AD35C0F
:10154000D840084B18600020FEF742FE00207AE7E2
:1015500001207047012076E7002002400010024081
:10156000C820000800000020014B1868704700BF29
:1015700000000020F8B5594BDB6813F0030F18D0BA
:10158000564BDB6803F003030268934202D0012547
:101590002846F8BD002A00F09F80504BDB68C3F35B
:1015A000021301334268934201D00125F0E7002580
:1015B0001AE00368022B58D0032B5DD0012B01D019
:1015C00001250FE0454A126812F0020F60D0434D2A
:1015D000EA6822F073024468013C43EA04131343AF
:1015E000EB600025002DD3D10F4604463B4A13681B
:1015F00023F080631360FEF715FE0646374B1B6829
:1016000013F0006F05D0FEF70DFE801B0228F5D900
:101610000325002DBCD1002F3CD130490B6923F0AC
:10162000784323F4FE43A068E268D20642EA00222F
:1016300013430B61294A136843F080631360FEF77C
:10164000F1FD0646254B1B6813F0006F05D1FEF730
:10165000E9FD801B0228F5D90325002D98D11F4AEA
:101660001369A1690B43136192E71C4A126812F4D3
:10167000806FACD10125B5E7184A126812F4003F1B
:10168000A5D1164A126812F4802FA0D10125A9E72E
:101690000125A7E7012F0FD01048026922F0C06290
:1016A00022F4FE42A16863695B08013B5B0643EAE2
:1016B000012313430361BDE70848026922F4C00215
:1016C00022F4FE42A16823695B08013B5B0543EA03
:1016D000012313430361ADE7012559E700100240E0
:1016E0002DE9F04182B00446036813F4006F26D060
:1016F000C36BB3F5000F06D0B3F5400F1DD09BB1FF
:10170000012637461DE0AE4AD36843F48033D360E8
:101710000027AB4AD2F8883023F44003E16B0B4337
:10172000C2F8883000260CE000210430FFF722FFC9
:1017300007460028EDD0064603E00027E9E700262B
:101740003746236813F4003F6BD09D4B9B6D13F01D
:10175000805F4CD19A4B9A6D42F080529A659B6D96
:1017600003F080530193019B4FF00108954A1368E1
:1017700043F480731360FEF755FD0546914B1B68DB
:1017800013F4807F05D1FEF74DFD401B0228F5D9EB
:101790000327002F40D18A4BD3F8903013F44073C5
:1017A00015D0226D9A4212D0854AD2F8903023F497
:1017B0004073D2F8901041F48031C2F89010D2F802
:1017C000901021F48031C2F89010C2F8903013F0DC
:1017D000010F0FD1002F40F0C980794AD2F8903024
:1017E00023F44073216D0B43C2F8903015E04FF0A5
:1017F0000008BBE7FEF716FD0546714BD3F89030A5
:1018000013F0020FE6D1FEF70DFD401B41F28833C5
:101810009842F2D90327DDE73E46B8F1000F40F0C9
:10182000A780236813F0010F08D0654AD2F88830EA
:1018300023F00303216A0B43C2F88830236813F0B6
:10184000020F08D05E4AD2F8883023F00C03616A98
:101850000B43C2F88830236813F0200F08D0584A91
:10186000D2F8883023F44063A16A0B43C2F8883071
:10187000236813F4007F08D0514AD2F8883023F44B
:101880004023616B0B43C2F88830236813F4806FE8
:1018900008D04B4AD2F8883023F44013A16B0B4395
:1018A000C2F88830236813F0400F08D0444AD2F8B9
:1018B000883023F44053E16A0B43C2F88830236830
:1018C00013F4807F08D03E4AD2F8883023F44033A6
:1018D000216B0B43C2F88830236813F4005F0FD0EC
:1018E000374AD2F8883023F04063216C0B43C2F8AA
:1018F0008830236CB3F1006F40D0B3F1806F42D0D9
:10190000236813F4802F0FD02D4AD2F8883023F0AB
:101910004063616C0B43C2F88830636CB3F1006FB5
:1019200039D0B3F1806F3BD0236813F4804F0CD0D3
:10193000234AD2F8883023F04053A16C0B43C2F8FD
:101940008830A36CB3F1805F32D0236813F4004F6A
:1019500008D01B4AD2F8883023F08043E16C0B4357
:10196000C2F88830304602B0BDE8F0813E4654E708
:10197000134A936D23F08053936552E7D36843F481
:101980008013D360BCE70121201DFFF7F3FD002881
:10199000B6D00646B4E7D36843F48013D360C3E7F8
:1019A0000121201DFFF7E6FD0028BDD00646BBE75C
:1019B0000221201DFFF7DEFD0028C6D00646C4E741
:1019C0000010024000700040002853D010B50446BB
:1019D0000023836290F85D30002B40D0022384F80E
:1019E0005D302268136823F040031360E368B3F5A9
:1019F000E06F39D90022B3F5706F04D0B3F5E06F12
:101A000001D00021A162216B21B9B3F5E06F2ED97D
:101A1000022323636368A1680B4321690B43616957
:101A20000B43A16901F400710B43E1690B43216A87
:101A30000B43A06A216803430B60638B03F004032C
:101A4000616A0B43616B0B43E1680B4321681343ED
:101A50004B6000202066012384F85D3010BD80F8C3
:101A60005C3000F0FFF9B9E74FF48052C3E701237F
:101A70002363CFE701207047704710B50446FC216F
:101A800000F073FA204610BD0C4A0260002280F874
:101A9000E42080F8E520C0F8C8105022A0F8CC203F
:101AA000074AC0F8E8204FF07652C0F8EC20C0F8A2
:101AB000F0200122C0F8F420704700BF90200008F9
:101AC0006F12833A30B583B004460246202302F8F1
:101AD000F93FB0F8CC10FF2500950123D0F8C800DD
:101AE000FEF776FEB4F8CC1001310095082304F11E
:101AF000CE0289B2D4F8C800FEF728FF94F8CF30A0
:101B000094F8CE0040EA032000B2A4F87C0094F8D8
:101B1000D13094F8D01041EA032109B2A4F87E1024
:101B200094F8D33094F8D22042EA032212B2A4F8F7
:101B3000802094F8D55094F8D43043EA05231BB2A2
:101B4000A4F8823007EE900AB8EEE77ADFED0F6A6C
:101B500027EE267A84ED217A07EE901AB8EEE77A1E
:101B600027EE267A84ED227A07EE902AB8EEE77AFD
:101B700027EE267A84ED237A07EE903AF8EEE77A9C
:101B800067EEA67AC4ED247A03B030BD0000803839
:101B900000B589B0104BDA6C42F00102DA64DA6CFD
:101BA00002F001020192019ADA6C42F00202DA6458
:101BB000DB6C03F002030293029B4FF480730393E8
:101BC00000230493059303A94FF09040FEF7A2FB76
:101BD00009B05DF804FB00BF00100240FEE7000002
:101BE00008B51448144B0360144B43600023836012
:101BF0000122C260036143618361C3610362FEF736
:101C000085FD50B900210B48FEF75EFF48B9002161
:101C10000848FEF787FF40B908BDD1210848FFF703
:101C2000DDFFD8210648FFF7D9FFDF210448FFF781
:101C3000D5FF00BF8400002000540040EC9C9010B1
:101C4000E020000808B50F480F4BC364002303656C
:101C500043654FF470628265C36503664FF400729A
:101C60004266C3660367436707228267C367C0F89B
:101C700080304C30FFF7A8FE00B908BDF8210348BA
:101C8000FFF7ACFF8400002000300140E020000896
:101C900000B5ADB010231B930122219200232293A3
:101CA00060232393022325932692279228222892A9
:101CB000072229922A932B931BA8FFF7C1F868BB30
:101CC0000F231693032317930023189319931A9342
:101CD000042116A8FFF7A0FB20BB4023019300239B
:101CE0000C9301A8FFF7FCFC00BB4FF40070FEF75B
:101CF00097FFF8B9FFF738FC104BA3FB00308009C1
:101D0000FEF7DCFA0420FEF7EFFA002211464FF04E
:101D1000FF30FEF79FFA2DB05DF804FB97210848CD
:101D2000FFF75CFFA5210648FFF758FFAC210448E8
:101D3000FFF754FFB3210248FFF750FFD34D621065
:101D4000E020000800B5C1B0084901A8FFF79CFEDB
:101D5000FEF754FAFFF79CFFFFF71AFFFFF740FF6B
:101D6000FFF770FF01A8FFF7ADFEFBE7840000203E
:101D700000B585B0254B1A6E42F001021A661A6E44
:101D800002F001020092009A9A6D42F080529A6528
:101D90009B6D03F080530193019B0320FEF748FAEB
:101DA000002211466FF00B00FEF754FA0022114694
:101DB0006FF00A00FEF74EFA002211466FF009009C
:101DC000FEF748FA002211466FF00400FEF742FACF
:101DD000002211466FF00300FEF73CFA0022114684
:101DE0006FF00100FEF736FA002211464FF0FF3087
:101DF000FEF730FA00230293039302A8FEF7BEFE1B
:101E0000FEF7FEFE05B05DF804FB00BF00100240C7
:101E10000268114B9A4200D0704700B587B0C023CA
:101E200001931223029301230393032304930423B6
:101E300005930DEB03010948FEF76CFA084B9A6D08
:101E400042F400129A659B6D03F400130093009B0B
:101E500007B05DF804FB00BF0054004000040048D8
:101E6000001002400268114B9A4200D0704700B542
:101E700087B003F5EA339A6D42F400429A659B6D90
:101E800003F400430093009B382301930223029341
:101E900000230393032304930623059301A9044815
:101EA000FEF738FA07B05DF804FB00BF003C0040C5
:101EB000000400487047FEE7FEE7FEE7FEE77047D4
:101EC0007047704708B5FEF7A5F9FEF71EFA08BD82
:101ED0000F49D1F8883043F47003C1F888300D4BB6
:101EE0001A6842F001021A60002098601A6822F015
:101EF000A85222F410221A604FF48052DA601A6855
:101F000022F480221A6098614FF000638B60704762
:101F100000ED00E000100240DFF834D0002103E0C3
:101F20000C4B5B58435004310B480C4B42189A42FF
:101F3000F6D30B4A02E0002342F8043B094B9A42D5
:101F4000F9D3FFF7C5FF00F015F8FFF7FBFEFEE73A
:101F5000000001200021000800000020680000208F
:101F60006800002040010020FEE700F000B800F00B
:101F700025B8000070B50D4E0D4CA41BA410002513
:101F8000A54209D10B4E0C4C00F070F8A41BA41014
:101F90000025A54205D170BD56F82530984701357A
:101FA000EEE756F8253098470135F2E7F0200008B3
:101FB000F0200008F0200008F4200008024B014641
:101FC000186800F003B800BF0400002038B50546CB
:101FD000002945D051F8043C0C1F002BB8BFE41871
:101FE00000F042F81F4A1368104633B9636014606A
:101FF0002846BDE8384000F038B8A3420CD9216823
:102000006218934204BF1A685B68636004BF521889
:1020100022600460ECE713465A680AB1A242FAD97A
:1020200019685818A0420BD1206801445818824200
:102030001960DDD1106852685A6001441960D7E711
:1020400002D90C232B60D3E7206821188A4204BFF1
:1020500011685268626004BF091821605C60C7E7BC
:1020600038BD00BF3801002070477047F8B500BF89
:10207000F8BC08BC9E467047F8B500BFF8BC08BC69
:082080009E46704700000000BD
:102088000000000000000000791A00087B1A000810
:10209800A0860100400D0300801A060000350C00E0
:1020A80040420F0080841E0000093D0000127A00A3
:1020B8000024F40000366E010048E801006CDC02E0
:1020C80000000000000000000102030406070809E0
:1020D80000000000010203042E2E2F5372632F6D9F
:0820E80061696E2E6370700047
:0820F000B5010008000000002A
:0820F800910100080000000046
:1021000000093D0008000020000000000000000061
:1021100000000000000000000000000000000000BF
:1021200000000000000000000000000000000000AF
:10213000000000000000000000000000000000009F
:10214000000000000000000000000000000000008F
:10215000000000000000000000000000000000007F
:08216000000000000000000077
:0400000508001F19B7
:00000001FF
